{
  "_format": "hh-sol-artifact-1",
  "contractName": "MarketplaceContract",
  "sourceName": "contracts/MarketplaceContract.sol",
  "abi": [
    {
      "inputs": [
        {
          "internalType": "address",
          "name": "_fitTokenAddress",
          "type": "address"
        },
        {
          "internalType": "address",
          "name": "_treasury",
          "type": "address"
        }
      ],
      "stateMutability": "nonpayable",
      "type": "constructor"
    },
    {
      "anonymous": false,
      "inputs": [
        {
          "indexed": true,
          "internalType": "address",
          "name": "buyer",
          "type": "address"
        },
        {
          "indexed": true,
          "internalType": "uint256",
          "name": "nftId",
          "type": "uint256"
        },
        {
          "indexed": true,
          "internalType": "uint256",
          "name": "productId",
          "type": "uint256"
        },
        {
          "indexed": false,
          "internalType": "uint256",
          "name": "price",
          "type": "uint256"
        },
        {
          "indexed": false,
          "internalType": "uint256",
          "name": "timestamp",
          "type": "uint256"
        }
      ],
      "name": "NFTPurchased",
      "type": "event"
    },
    {
      "anonymous": false,
      "inputs": [
        {
          "indexed": true,
          "internalType": "uint256",
          "name": "nftId",
          "type": "uint256"
        },
        {
          "indexed": false,
          "internalType": "uint256",
          "name": "timestamp",
          "type": "uint256"
        }
      ],
      "name": "NFTUsed",
      "type": "event"
    },
    {
      "anonymous": false,
      "inputs": [
        {
          "indexed": true,
          "internalType": "uint256",
          "name": "productId",
          "type": "uint256"
        },
        {
          "indexed": false,
          "internalType": "uint256",
          "name": "oldPrice",
          "type": "uint256"
        },
        {
          "indexed": false,
          "internalType": "uint256",
          "name": "newPrice",
          "type": "uint256"
        }
      ],
      "name": "PriceUpdated",
      "type": "event"
    },
    {
      "anonymous": false,
      "inputs": [
        {
          "indexed": true,
          "internalType": "uint256",
          "name": "productId",
          "type": "uint256"
        },
        {
          "indexed": false,
          "internalType": "string",
          "name": "name",
          "type": "string"
        },
        {
          "indexed": false,
          "internalType": "uint256",
          "name": "price",
          "type": "uint256"
        }
      ],
      "name": "ProductAdded",
      "type": "event"
    },
    {
      "anonymous": false,
      "inputs": [
        {
          "indexed": true,
          "internalType": "uint256",
          "name": "productId",
          "type": "uint256"
        },
        {
          "indexed": false,
          "internalType": "uint256",
          "name": "newStock",
          "type": "uint256"
        }
      ],
      "name": "StockUpdated",
      "type": "event"
    },
    {
      "inputs": [
        {
          "internalType": "uint256",
          "name": "productId",
          "type": "uint256"
        }
      ],
      "name": "activateProduct",
      "outputs": [],
      "stateMutability": "nonpayable",
      "type": "function"
    },
    {
      "inputs": [
        {
          "internalType": "string",
          "name": "name",
          "type": "string"
        },
        {
          "internalType": "string",
          "name": "description",
          "type": "string"
        },
        {
          "internalType": "string",
          "name": "category",
          "type": "string"
        },
        {
          "internalType": "uint256",
          "name": "priceTokens",
          "type": "uint256"
        },
        {
          "internalType": "uint256",
          "name": "stock",
          "type": "uint256"
        },
        {
          "internalType": "string",
          "name": "imageUrl",
          "type": "string"
        }
      ],
      "name": "addProduct",
      "outputs": [],
      "stateMutability": "nonpayable",
      "type": "function"
    },
    {
      "inputs": [
        {
          "internalType": "uint256",
          "name": "productId",
          "type": "uint256"
        }
      ],
      "name": "deactivateProduct",
      "outputs": [],
      "stateMutability": "nonpayable",
      "type": "function"
    },
    {
      "inputs": [],
      "name": "fitToken",
      "outputs": [
        {
          "internalType": "contract IHRC20",
          "name": "",
          "type": "address"
        }
      ],
      "stateMutability": "view",
      "type": "function"
    },
    {
      "inputs": [],
      "name": "fitTokenAddress",
      "outputs": [
        {
          "internalType": "address",
          "name": "",
          "type": "address"
        }
      ],
      "stateMutability": "view",
      "type": "function"
    },
    {
      "inputs": [
        {
          "internalType": "uint256",
          "name": "nftId",
          "type": "uint256"
        }
      ],
      "name": "getNFT",
      "outputs": [
        {
          "components": [
            {
              "internalType": "uint256",
              "name": "id",
              "type": "uint256"
            },
            {
              "internalType": "uint256",
              "name": "productId",
              "type": "uint256"
            },
            {
              "internalType": "address",
              "name": "owner",
              "type": "address"
            },
            {
              "internalType": "uint256",
              "name": "purchaseDate",
              "type": "uint256"
            },
            {
              "internalType": "bool",
              "name": "isUsed",
              "type": "bool"
            },
            {
              "internalType": "uint256",
              "name": "usedDate",
              "type": "uint256"
            },
            {
              "internalType": "string",
              "name": "metadata",
              "type": "string"
            }
          ],
          "internalType": "struct MarketplaceContract.NFT",
          "name": "",
          "type": "tuple"
        }
      ],
      "stateMutability": "view",
      "type": "function"
    },
    {
      "inputs": [],
      "name": "getNFTCount",
      "outputs": [
        {
          "internalType": "uint256",
          "name": "",
          "type": "uint256"
        }
      ],
      "stateMutability": "view",
      "type": "function"
    },
    {
      "inputs": [
        {
          "internalType": "uint256",
          "name": "nftId",
          "type": "uint256"
        }
      ],
      "name": "getNFTOwner",
      "outputs": [
        {
          "internalType": "address",
          "name": "",
          "type": "address"
        }
      ],
      "stateMutability": "view",
      "type": "function"
    },
    {
      "inputs": [
        {
          "internalType": "uint256",
          "name": "productId",
          "type": "uint256"
        }
      ],
      "name": "getProduct",
      "outputs": [
        {
          "components": [
            {
              "internalType": "uint256",
              "name": "id",
              "type": "uint256"
            },
            {
              "internalType": "string",
              "name": "name",
              "type": "string"
            },
            {
              "internalType": "string",
              "name": "description",
              "type": "string"
            },
            {
              "internalType": "string",
              "name": "category",
              "type": "string"
            },
            {
              "internalType": "uint256",
              "name": "priceTokens",
              "type": "uint256"
            },
            {
              "internalType": "uint256",
              "name": "stock",
              "type": "uint256"
            },
            {
              "internalType": "string",
              "name": "imageUrl",
              "type": "string"
            },
            {
              "internalType": "bool",
              "name": "isActive",
              "type": "bool"
            }
          ],
          "internalType": "struct MarketplaceContract.Product",
          "name": "",
          "type": "tuple"
        }
      ],
      "stateMutability": "view",
      "type": "function"
    },
    {
      "inputs": [
        {
          "internalType": "address",
          "name": "user",
          "type": "address"
        }
      ],
      "name": "getUserNFTs",
      "outputs": [
        {
          "internalType": "uint256[]",
          "name": "",
          "type": "uint256[]"
        }
      ],
      "stateMutability": "view",
      "type": "function"
    },
    {
      "inputs": [
        {
          "internalType": "uint256",
          "name": "nftId",
          "type": "uint256"
        }
      ],
      "name": "isNFTUsed",
      "outputs": [
        {
          "internalType": "bool",
          "name": "",
          "type": "bool"
        }
      ],
      "stateMutability": "view",
      "type": "function"
    },
    {
      "inputs": [
        {
          "internalType": "uint256",
          "name": "nftId",
          "type": "uint256"
        }
      ],
      "name": "markNFTUsed",
      "outputs": [],
      "stateMutability": "nonpayable",
      "type": "function"
    },
    {
      "inputs": [],
      "name": "nftCount",
      "outputs": [
        {
          "internalType": "uint256",
          "name": "",
          "type": "uint256"
        }
      ],
      "stateMutability": "view",
      "type": "function"
    },
    {
      "inputs": [
        {
          "internalType": "uint256",
          "name": "",
          "type": "uint256"
        }
      ],
      "name": "nfts",
      "outputs": [
        {
          "internalType": "uint256",
          "name": "id",
          "type": "uint256"
        },
        {
          "internalType": "uint256",
          "name": "productId",
          "type": "uint256"
        },
        {
          "internalType": "address",
          "name": "owner",
          "type": "address"
        },
        {
          "internalType": "uint256",
          "name": "purchaseDate",
          "type": "uint256"
        },
        {
          "internalType": "bool",
          "name": "isUsed",
          "type": "bool"
        },
        {
          "internalType": "uint256",
          "name": "usedDate",
          "type": "uint256"
        },
        {
          "internalType": "string",
          "name": "metadata",
          "type": "string"
        }
      ],
      "stateMutability": "view",
      "type": "function"
    },
    {
      "inputs": [],
      "name": "owner",
      "outputs": [
        {
          "internalType": "address",
          "name": "",
          "type": "address"
        }
      ],
      "stateMutability": "view",
      "type": "function"
    },
    {
      "inputs": [],
      "name": "productCount",
      "outputs": [
        {
          "internalType": "uint256",
          "name": "",
          "type": "uint256"
        }
      ],
      "stateMutability": "view",
      "type": "function"
    },
    {
      "inputs": [
        {
          "internalType": "uint256",
          "name": "",
          "type": "uint256"
        }
      ],
      "name": "products",
      "outputs": [
        {
          "internalType": "uint256",
          "name": "id",
          "type": "uint256"
        },
        {
          "internalType": "string",
          "name": "name",
          "type": "string"
        },
        {
          "internalType": "string",
          "name": "description",
          "type": "string"
        },
        {
          "internalType": "string",
          "name": "category",
          "type": "string"
        },
        {
          "internalType": "uint256",
          "name": "priceTokens",
          "type": "uint256"
        },
        {
          "internalType": "uint256",
          "name": "stock",
          "type": "uint256"
        },
        {
          "internalType": "string",
          "name": "imageUrl",
          "type": "string"
        },
        {
          "internalType": "bool",
          "name": "isActive",
          "type": "bool"
        }
      ],
      "stateMutability": "view",
      "type": "function"
    },
    {
      "inputs": [
        {
          "internalType": "uint256",
          "name": "productId",
          "type": "uint256"
        },
        {
          "internalType": "uint256",
          "name": "quantity",
          "type": "uint256"
        }
      ],
      "name": "purchaseProduct",
      "outputs": [
        {
          "internalType": "uint256",
          "name": "",
          "type": "uint256"
        }
      ],
      "stateMutability": "nonpayable",
      "type": "function"
    },
    {
      "inputs": [],
      "name": "treasury",
      "outputs": [
        {
          "internalType": "address",
          "name": "",
          "type": "address"
        }
      ],
      "stateMutability": "view",
      "type": "function"
    },
    {
      "inputs": [
        {
          "internalType": "uint256",
          "name": "productId",
          "type": "uint256"
        },
        {
          "internalType": "uint256",
          "name": "newPrice",
          "type": "uint256"
        }
      ],
      "name": "updatePrice",
      "outputs": [],
      "stateMutability": "nonpayable",
      "type": "function"
    },
    {
      "inputs": [
        {
          "internalType": "uint256",
          "name": "productId",
          "type": "uint256"
        },
        {
          "internalType": "uint256",
          "name": "newStock",
          "type": "uint256"
        }
      ],
      "name": "updateStock",
      "outputs": [],
      "stateMutability": "nonpayable",
      "type": "function"
    },
    {
      "inputs": [
        {
          "internalType": "address",
          "name": "newTreasury",
          "type": "address"
        }
      ],
      "name": "updateTreasury",
      "outputs": [],
      "stateMutability": "nonpayable",
      "type": "function"
    },
    {
      "inputs": [
        {
          "internalType": "address",
          "name": "",
          "type": "address"
        },
        {
          "internalType": "uint256",
          "name": "",
          "type": "uint256"
        }
      ],
      "name": "userNFTs",
      "outputs": [
        {
          "internalType": "uint256",
          "name": "",
          "type": "uint256"
        }
      ],
      "stateMutability": "view",
      "type": "function"
    }
  ],
  "bytecode": "0x60806040523480156200001157600080fd5b50604051620020053803806200200583398101604081905262000034916200009b565b600080546001600160a01b03199081163317909155600280546001600160a01b039485169083168117909155600380548316909117905560018054929093169116179055620000d3565b80516001600160a01b03811681146200009657600080fd5b919050565b60008060408385031215620000af57600080fd5b620000ba836200007e565b9150620000ca602084016200007e565b90509250929050565b611f2280620000e36000396000f3fe608060405234801561001057600080fd5b506004361061014d5760003560e01c806382367b2d116100c3578063d41250c31161007c578063d41250c3146102fb578063deaea2e31461030e578063e0f6ef8714610321578063f70192c91461032a578063f7bead271461033d578063fd77e5de1461036057600080fd5b806382367b2d1461027c5780638da5cb5b1461028f5780639dfc3dd1146102a2578063a0440426146102b5578063a08b3017146102c8578063b9db15b4146102db57600080fd5b806352de4ee51161011557806352de4ee5146101e75780635427963714610207578063576f7ea71461020f57806361d027b31461022f5780637acc0b20146102425780637f51bb1f1461026957600080fd5b80630af2c6ca14610152578063265aa6211461016e578063291c73c31461019457806332f662f6146101a757806335ab5847146101bc575b600080fd5b61015b60075481565b6040519081526020015b60405180910390f35b61018161017c366004611672565b610373565b60405161016597969594939291906116db565b61015b6101a2366004611745565b61044a565b6101ba6101b5366004611672565b61047b565b005b6003546101cf906001600160a01b031681565b6040516001600160a01b039091168152602001610165565b6101fa6101f536600461176f565b6104fa565b6040516101659190611791565b60075461015b565b61022261021d366004611672565b610566565b60405161016591906117d5565b6001546101cf906001600160a01b031681565b610255610250366004611672565b6106e1565b60405161016598979695949392919061183f565b6101ba61027736600461176f565b610945565b6101ba61028a3660046118b9565b610991565b6000546101cf906001600160a01b031681565b6101ba6102b03660046118b9565b610a42565b61015b6102c33660046118b9565b610aee565b6101ba6102d636600461197e565b610eb1565b6102ee6102e9366004611672565b611017565b6040516101659190611a3d565b6002546101cf906001600160a01b031681565b6101cf61031c366004611672565b61132b565b61015b60055481565b6101ba610338366004611672565b611379565b61035061034b366004611672565b61148b565b6040519015158152602001610165565b6101ba61036e366004611672565b6114d3565b60066020819052600091825260409091208054600182015460028301546003840154600485015460058601549686018054959794966001600160a01b0390941695929460ff9092169391926103c790611af2565b80601f01602080910402602001604051908101604052809291908181526020018280546103f390611af2565b80156104405780601f1061041557610100808354040283529160200191610440565b820191906000526020600020905b81548152906001019060200180831161042357829003601f168201915b5050505050905087565b6008602052816000526040600020818154811061046657600080fd5b90600052602060002001600091509150505481565b6000546001600160a01b031633146104ae5760405162461bcd60e51b81526004016104a590611b2c565b60405180910390fd5b6000811180156104c057506005548111155b6104dc5760405162461bcd60e51b81526004016104a590611b63565b6000908152600460205260409020600701805460ff19166001179055565b6001600160a01b03811660009081526008602090815260409182902080548351818402810184019094528084526060939283018282801561055a57602002820191906000526020600020905b815481526020019060010190808311610546575b50505050509050919050565b6105b16040518060e00160405280600081526020016000815260200160006001600160a01b031681526020016000815260200160001515815260200160008152602001606081525090565b6000821180156105c357506007548211155b6105df5760405162461bcd60e51b81526004016104a590611b8c565b600082815260066020818152604092839020835160e0810185528154815260018201549281019290925260028101546001600160a01b03169382019390935260038301546060820152600483015460ff1615156080820152600583015460a0820152908201805491929160c08401919061065890611af2565b80601f016020809104026020016040519081016040528092919081815260200182805461068490611af2565b80156106d15780601f106106a6576101008083540402835291602001916106d1565b820191906000526020600020905b8154815290600101906020018083116106b457829003601f168201915b5050505050815250509050919050565b6004602052600090815260409020805460018201805491929161070390611af2565b80601f016020809104026020016040519081016040528092919081815260200182805461072f90611af2565b801561077c5780601f106107515761010080835404028352916020019161077c565b820191906000526020600020905b81548152906001019060200180831161075f57829003601f168201915b50505050509080600201805461079190611af2565b80601f01602080910402602001604051908101604052809291908181526020018280546107bd90611af2565b801561080a5780601f106107df5761010080835404028352916020019161080a565b820191906000526020600020905b8154815290600101906020018083116107ed57829003601f168201915b50505050509080600301805461081f90611af2565b80601f016020809104026020016040519081016040528092919081815260200182805461084b90611af2565b80156108985780601f1061086d57610100808354040283529160200191610898565b820191906000526020600020905b81548152906001019060200180831161087b57829003601f168201915b5050505050908060040154908060050154908060060180546108b990611af2565b80601f01602080910402602001604051908101604052809291908181526020018280546108e590611af2565b80156109325780601f1061090757610100808354040283529160200191610932565b820191906000526020600020905b81548152906001019060200180831161091557829003601f168201915b5050506007909301549192505060ff1688565b6000546001600160a01b0316331461096f5760405162461bcd60e51b81526004016104a590611b2c565b600180546001600160a01b0319166001600160a01b0392909216919091179055565b6000546001600160a01b031633146109bb5760405162461bcd60e51b81526004016104a590611b2c565b6000821180156109cd57506005548211155b6109e95760405162461bcd60e51b81526004016104a590611b63565b60008281526004602081815260409283902090910180549084905582518181529182018490529184917f15819dd2fd9f6418b142e798d08a18d0bf06ea368f4480b7b0d3f75bd966bc48910160405180910390a2505050565b6000546001600160a01b03163314610a6c5760405162461bcd60e51b81526004016104a590611b2c565b600082118015610a7e57506005548211155b610a9a5760405162461bcd60e51b81526004016104a590611b63565b600082815260046020526040908190206005018290555182907febcfd4ce21b6aefd071d3e0f4bfa57e491b5308a1ffb5a3a8e4805e23f00b8d790610ae29084815260200190565b60405180910390a25050565b6000808211610b3f5760405162461bcd60e51b815260206004820152601960248201527f5175616e74697479206d75737420626520706f7369746976650000000000000060448201526064016104a5565b600083118015610b5157506005548311155b610b6d5760405162461bcd60e51b81526004016104a590611b63565b6000838152600460205260409020600781015460ff16610bc45760405162461bcd60e51b815260206004820152601260248201527150726f64756374206e6f742061637469766560701b60448201526064016104a5565b8281600501541015610c0d5760405162461bcd60e51b8152602060048201526012602482015271496e73756666696369656e742073746f636b60701b60448201526064016104a5565b6000838260040154610c1f9190611bc7565b6003546001546040516323b872dd60e01b81523360048201526001600160a01b0391821660248201526044810184905292935016906323b872dd906064016020604051808303816000875af1158015610c7c573d6000803e3d6000fd5b505050506040513d601f19601f82011682018060405250810190610ca09190611bde565b610ce45760405162461bcd60e51b8152602060048201526015602482015274151bdad95b881d1c985b9cd9995c8819985a5b1959605a1b60448201526064016104a5565b83826005016000828254610cf89190611c00565b9091555050600582015460405190815285907febcfd4ce21b6aefd071d3e0f4bfa57e491b5308a1ffb5a3a8e4805e23f00b8d79060200160405180910390a260078054906000610d4783611c13565b91905055506000610d5786611546565b83600101610d6487611546565b610d6d85611546565b604051602001610d809493929190611c48565b60408051808303601f1901815260e08301825260075480845260208085018b815233868601908152426060880190815260006080890181815260a08a0182815260c08b0189815297835260069687905298909120895181559351600185015591516002840180546001600160a01b0319166001600160a01b039092169190911790555160038301555160048201805460ff1916911515919091179055935160058501559051919450820190610e359082611db9565b505033600081815260086020908152604080832060078054825460018101845592865294849020909101939093559154825187815242928101929092528a945092917f87aec4c01258b58d7e593e097d155b85a848e29432591c799339099537212ef4910160405180910390a460075493505050505b92915050565b6000546001600160a01b03163314610edb5760405162461bcd60e51b81526004016104a590611b2c565b60058054906000610eeb83611c13565b9190505550604051806101000160405280600554815260200187815260200186815260200185815260200184815260200183815260200182815260200160011515815250600460006005548152602001908152602001600020600082015181600001556020820151816001019081610f639190611db9565b5060408201516002820190610f789082611db9565b5060608201516003820190610f8d9082611db9565b506080820151600482015560a0820151600582015560c08201516006820190610fb69082611db9565b5060e091909101516007909101805460ff19169115159190911790556005546040517fcca07c742c5274e8b72111ba69566aa4442450bfc50bd897ea38d0170d1accfc906110079089908790611e79565b60405180910390a2505050505050565b611061604051806101000160405280600081526020016060815260200160608152602001606081526020016000815260200160008152602001606081526020016000151581525090565b60008211801561107357506005548211155b61108f5760405162461bcd60e51b81526004016104a590611b63565b6004600083815260200190815260200160002060405180610100016040529081600082015481526020016001820180546110c890611af2565b80601f01602080910402602001604051908101604052809291908181526020018280546110f490611af2565b80156111415780601f1061111657610100808354040283529160200191611141565b820191906000526020600020905b81548152906001019060200180831161112457829003601f168201915b5050505050815260200160028201805461115a90611af2565b80601f016020809104026020016040519081016040528092919081815260200182805461118690611af2565b80156111d35780601f106111a8576101008083540402835291602001916111d3565b820191906000526020600020905b8154815290600101906020018083116111b657829003601f168201915b505050505081526020016003820180546111ec90611af2565b80601f016020809104026020016040519081016040528092919081815260200182805461121890611af2565b80156112655780601f1061123a57610100808354040283529160200191611265565b820191906000526020600020905b81548152906001019060200180831161124857829003601f168201915b50505050508152602001600482015481526020016005820154815260200160068201805461129290611af2565b80601f01602080910402602001604051908101604052809291908181526020018280546112be90611af2565b801561130b5780601f106112e05761010080835404028352916020019161130b565b820191906000526020600020905b8154815290600101906020018083116112ee57829003601f168201915b50505091835250506007919091015460ff16151560209091015292915050565b6000808211801561133e57506007548211155b61135a5760405162461bcd60e51b81526004016104a590611b8c565b506000908152600660205260409020600201546001600160a01b031690565b6000546001600160a01b031633146113a35760405162461bcd60e51b81526004016104a590611b2c565b6000811180156113b557506007548111155b6113d15760405162461bcd60e51b81526004016104a590611b8c565b60008181526006602052604090206004015460ff16156114265760405162461bcd60e51b815260206004820152601060248201526f13919508185b1c9958591e481d5cd95960821b60448201526064016104a5565b6000818152600660205260409081902060048101805460ff19166001179055426005909101819055905182917f8dfe6c49ab882df18d5bb510201879e9481725599339ea2a7f01da93889b0b439161148091815260200190565b60405180910390a250565b6000808211801561149e57506007548211155b6114ba5760405162461bcd60e51b81526004016104a590611b8c565b5060009081526006602052604090206004015460ff1690565b6000546001600160a01b031633146114fd5760405162461bcd60e51b81526004016104a590611b2c565b60008111801561150f57506005548111155b61152b5760405162461bcd60e51b81526004016104a590611b63565b6000908152600460205260409020600701805460ff19169055565b60608160000361156d5750506040805180820190915260018152600360fc1b602082015290565b8160005b8115611597578061158181611c13565b91506115909050600a83611e9b565b9150611571565b60008167ffffffffffffffff8111156115b2576115b26118db565b6040519080825280601f01601f1916602001820160405280156115dc576020820181803683370190505b509050815b8515611669576115f2600182611c00565b90506000611601600a88611e9b565b61160c90600a611bc7565b6116169088611c00565b611621906030611ebd565b905060008160f81b90508084848151811061163e5761163e611ed6565b60200101906001600160f81b031916908160001a905350611660600a89611e9b565b975050506115e1565b50949350505050565b60006020828403121561168457600080fd5b5035919050565b60005b838110156116a657818101518382015260200161168e565b50506000910152565b600081518084526116c781602086016020860161168b565b601f01601f19169290920160200192915050565b87815286602082015260018060a01b038616604082015284606082015283151560808201528260a082015260e060c0820152600061171c60e08301846116af565b9998505050505050505050565b80356001600160a01b038116811461174057600080fd5b919050565b6000806040838503121561175857600080fd5b61176183611729565b946020939093013593505050565b60006020828403121561178157600080fd5b61178a82611729565b9392505050565b6020808252825182820181905260009190848201906040850190845b818110156117c9578351835292840192918401916001016117ad565b50909695505050505050565b60208152815160208201526020820151604082015260018060a01b036040830151166060820152606082015160808201526080820151151560a082015260a082015160c0820152600060c083015160e0808401526118376101008401826116af565b949350505050565b60006101008a83528060208401526118598184018b6116af565b9050828103604084015261186d818a6116af565b9050828103606084015261188181896116af565b90508660808401528560a084015282810360c08401526118a181866116af565b91505082151560e08301529998505050505050505050565b600080604083850312156118cc57600080fd5b50508035926020909101359150565b634e487b7160e01b600052604160045260246000fd5b600082601f83011261190257600080fd5b813567ffffffffffffffff8082111561191d5761191d6118db565b604051601f8301601f19908116603f01168101908282118183101715611945576119456118db565b8160405283815286602085880101111561195e57600080fd5b836020870160208301376000602085830101528094505050505092915050565b60008060008060008060c0878903121561199757600080fd5b863567ffffffffffffffff808211156119af57600080fd5b6119bb8a838b016118f1565b975060208901359150808211156119d157600080fd5b6119dd8a838b016118f1565b965060408901359150808211156119f357600080fd5b6119ff8a838b016118f1565b9550606089013594506080890135935060a0890135915080821115611a2357600080fd5b50611a3089828a016118f1565b9150509295509295509295565b602081528151602082015260006020830151610100806040850152611a666101208501836116af565b91506040850151601f1980868503016060870152611a8484836116af565b93506060870151915080868503016080870152611aa184836116af565b9350608087015160a087015260a087015160c087015260c08701519150808685030160e087015250611ad383826116af565b92505060e0850151611ae88286018215159052565b5090949350505050565b600181811c90821680611b0657607f821691505b602082108103611b2657634e487b7160e01b600052602260045260246000fd5b50919050565b60208082526018908201527f4f6e6c79206f776e65722063616e2063616c6c20746869730000000000000000604082015260600190565b6020808252600f908201526e125b9d985b1a59081c1c9bd91d58dd608a1b604082015260600190565b6020808252600b908201526a125b9d985b1a590813919560aa1b604082015260600190565b634e487b7160e01b600052601160045260246000fd5b8082028115828204841417610eab57610eab611bb1565b600060208284031215611bf057600080fd5b8151801515811461178a57600080fd5b81810381811115610eab57610eab611bb1565b600060018201611c2557611c25611bb1565b5060010190565b60008151611c3e81856020860161168b565b9290920192915050565b6c3d91383937b23ab1ba24b2111d60991b815284516000906020611c7282600d8601838b0161168b565b6f1611383937b23ab1ba2730b6b2911d1160811b600d928501928301528654601d90600090611ca081611af2565b60018281168015611cb85760018114611cd157611d01565b60ff198416888701528215158302880186019450611d01565b8c6000528660002060005b84811015611cf75781548a8201890152908301908801611cdc565b5050858389010194505b50505050611d5c611d4f611d49611d34611d2e856c11161138bab0b73a34ba3c911d60991b8152600d0190565b8c611c2c565b681611383934b1b2911d60b91b815260090190565b89611c2c565b607d60f81b815260010190565b9a9950505050505050505050565b601f821115611db457600081815260208120601f850160051c81016020861015611d915750805b601f850160051c820191505b81811015611db057828155600101611d9d565b5050505b505050565b815167ffffffffffffffff811115611dd357611dd36118db565b611de781611de18454611af2565b84611d6a565b602080601f831160018114611e1c5760008415611e045750858301515b600019600386901b1c1916600185901b178555611db0565b600085815260208120601f198616915b82811015611e4b57888601518255948401946001909101908401611e2c565b5085821015611e695787850151600019600388901b60f8161c191681555b5050505050600190811b01905550565b604081526000611e8c60408301856116af565b90508260208301529392505050565b600082611eb857634e487b7160e01b600052601260045260246000fd5b500490565b60ff8181168382160190811115610eab57610eab611bb1565b634e487b7160e01b600052603260045260246000fdfea2646970667358221220a39b9c233fa557bc896fb20ca13028bb4b5b50ca804aabd326c75c1c840ca8c464736f6c63430008140033",
  "linkReferences": {},
  "deployedLinkReferences": {}
}