{
  "_format": "hh-sol-artifact-1",
  "contractName": "MarketplaceContract",
  "sourceName": "contracts/MarketplaceContract.sol",
  "abi": [
    {
      "inputs": [
        {
          "internalType": "address",
          "name": "_fitTokenAddress",
          "type": "address"
        },
        {
          "internalType": "address",
          "name": "_treasury",
          "type": "address"
        }
      ],
      "stateMutability": "nonpayable",
      "type": "constructor"
    },
    {
      "anonymous": false,
      "inputs": [
        {
          "indexed": true,
          "internalType": "address",
          "name": "buyer",
          "type": "address"
        },
        {
          "indexed": true,
          "internalType": "uint256",
          "name": "nftId",
          "type": "uint256"
        },
        {
          "indexed": true,
          "internalType": "uint256",
          "name": "productId",
          "type": "uint256"
        },
        {
          "indexed": false,
          "internalType": "uint256",
          "name": "price",
          "type": "uint256"
        },
        {
          "indexed": false,
          "internalType": "uint256",
          "name": "timestamp",
          "type": "uint256"
        }
      ],
      "name": "NFTPurchased",
      "type": "event"
    },
    {
      "anonymous": false,
      "inputs": [
        {
          "indexed": true,
          "internalType": "uint256",
          "name": "nftId",
          "type": "uint256"
        },
        {
          "indexed": false,
          "internalType": "uint256",
          "name": "timestamp",
          "type": "uint256"
        }
      ],
      "name": "NFTUsed",
      "type": "event"
    },
    {
      "anonymous": false,
      "inputs": [
        {
          "indexed": true,
          "internalType": "uint256",
          "name": "productId",
          "type": "uint256"
        },
        {
          "indexed": false,
          "internalType": "string",
          "name": "name",
          "type": "string"
        },
        {
          "indexed": false,
          "internalType": "uint256",
          "name": "price",
          "type": "uint256"
        }
      ],
      "name": "ProductAdded",
      "type": "event"
    },
    {
      "anonymous": false,
      "inputs": [
        {
          "indexed": true,
          "internalType": "uint256",
          "name": "productId",
          "type": "uint256"
        },
        {
          "indexed": false,
          "internalType": "uint256",
          "name": "newStock",
          "type": "uint256"
        }
      ],
      "name": "StockUpdated",
      "type": "event"
    },
    {
      "inputs": [
        {
          "internalType": "string",
          "name": "name",
          "type": "string"
        },
        {
          "internalType": "string",
          "name": "description",
          "type": "string"
        },
        {
          "internalType": "string",
          "name": "category",
          "type": "string"
        },
        {
          "internalType": "uint256",
          "name": "priceTokens",
          "type": "uint256"
        },
        {
          "internalType": "uint256",
          "name": "stock",
          "type": "uint256"
        },
        {
          "internalType": "string",
          "name": "imageUrl",
          "type": "string"
        }
      ],
      "name": "addProduct",
      "outputs": [],
      "stateMutability": "nonpayable",
      "type": "function"
    },
    {
      "inputs": [
        {
          "internalType": "uint256",
          "name": "productId",
          "type": "uint256"
        }
      ],
      "name": "deactivateProduct",
      "outputs": [],
      "stateMutability": "nonpayable",
      "type": "function"
    },
    {
      "inputs": [],
      "name": "fitToken",
      "outputs": [
        {
          "internalType": "contract IHRC20",
          "name": "",
          "type": "address"
        }
      ],
      "stateMutability": "view",
      "type": "function"
    },
    {
      "inputs": [],
      "name": "fitTokenAddress",
      "outputs": [
        {
          "internalType": "address",
          "name": "",
          "type": "address"
        }
      ],
      "stateMutability": "view",
      "type": "function"
    },
    {
      "inputs": [
        {
          "internalType": "uint256",
          "name": "nftId",
          "type": "uint256"
        }
      ],
      "name": "getNFT",
      "outputs": [
        {
          "components": [
            {
              "internalType": "uint256",
              "name": "id",
              "type": "uint256"
            },
            {
              "internalType": "uint256",
              "name": "productId",
              "type": "uint256"
            },
            {
              "internalType": "address",
              "name": "owner",
              "type": "address"
            },
            {
              "internalType": "uint256",
              "name": "purchaseDate",
              "type": "uint256"
            },
            {
              "internalType": "bool",
              "name": "isUsed",
              "type": "bool"
            },
            {
              "internalType": "uint256",
              "name": "usedDate",
              "type": "uint256"
            },
            {
              "internalType": "string",
              "name": "metadata",
              "type": "string"
            }
          ],
          "internalType": "struct MarketplaceContract.NFT",
          "name": "",
          "type": "tuple"
        }
      ],
      "stateMutability": "view",
      "type": "function"
    },
    {
      "inputs": [
        {
          "internalType": "uint256",
          "name": "nftId",
          "type": "uint256"
        }
      ],
      "name": "getNFTOwner",
      "outputs": [
        {
          "internalType": "address",
          "name": "",
          "type": "address"
        }
      ],
      "stateMutability": "view",
      "type": "function"
    },
    {
      "inputs": [
        {
          "internalType": "uint256",
          "name": "productId",
          "type": "uint256"
        }
      ],
      "name": "getProduct",
      "outputs": [
        {
          "components": [
            {
              "internalType": "uint256",
              "name": "id",
              "type": "uint256"
            },
            {
              "internalType": "string",
              "name": "name",
              "type": "string"
            },
            {
              "internalType": "string",
              "name": "description",
              "type": "string"
            },
            {
              "internalType": "string",
              "name": "category",
              "type": "string"
            },
            {
              "internalType": "uint256",
              "name": "priceTokens",
              "type": "uint256"
            },
            {
              "internalType": "uint256",
              "name": "stock",
              "type": "uint256"
            },
            {
              "internalType": "string",
              "name": "imageUrl",
              "type": "string"
            },
            {
              "internalType": "bool",
              "name": "isActive",
              "type": "bool"
            }
          ],
          "internalType": "struct MarketplaceContract.Product",
          "name": "",
          "type": "tuple"
        }
      ],
      "stateMutability": "view",
      "type": "function"
    },
    {
      "inputs": [
        {
          "internalType": "address",
          "name": "user",
          "type": "address"
        }
      ],
      "name": "getUserNFTs",
      "outputs": [
        {
          "internalType": "uint256[]",
          "name": "",
          "type": "uint256[]"
        }
      ],
      "stateMutability": "view",
      "type": "function"
    },
    {
      "inputs": [
        {
          "internalType": "uint256",
          "name": "nftId",
          "type": "uint256"
        }
      ],
      "name": "isNFTUsed",
      "outputs": [
        {
          "internalType": "bool",
          "name": "",
          "type": "bool"
        }
      ],
      "stateMutability": "view",
      "type": "function"
    },
    {
      "inputs": [
        {
          "internalType": "uint256",
          "name": "nftId",
          "type": "uint256"
        }
      ],
      "name": "markNFTUsed",
      "outputs": [],
      "stateMutability": "nonpayable",
      "type": "function"
    },
    {
      "inputs": [],
      "name": "nftCount",
      "outputs": [
        {
          "internalType": "uint256",
          "name": "",
          "type": "uint256"
        }
      ],
      "stateMutability": "view",
      "type": "function"
    },
    {
      "inputs": [
        {
          "internalType": "uint256",
          "name": "",
          "type": "uint256"
        }
      ],
      "name": "nfts",
      "outputs": [
        {
          "internalType": "uint256",
          "name": "id",
          "type": "uint256"
        },
        {
          "internalType": "uint256",
          "name": "productId",
          "type": "uint256"
        },
        {
          "internalType": "address",
          "name": "owner",
          "type": "address"
        },
        {
          "internalType": "uint256",
          "name": "purchaseDate",
          "type": "uint256"
        },
        {
          "internalType": "bool",
          "name": "isUsed",
          "type": "bool"
        },
        {
          "internalType": "uint256",
          "name": "usedDate",
          "type": "uint256"
        },
        {
          "internalType": "string",
          "name": "metadata",
          "type": "string"
        }
      ],
      "stateMutability": "view",
      "type": "function"
    },
    {
      "inputs": [],
      "name": "owner",
      "outputs": [
        {
          "internalType": "address",
          "name": "",
          "type": "address"
        }
      ],
      "stateMutability": "view",
      "type": "function"
    },
    {
      "inputs": [],
      "name": "productCount",
      "outputs": [
        {
          "internalType": "uint256",
          "name": "",
          "type": "uint256"
        }
      ],
      "stateMutability": "view",
      "type": "function"
    },
    {
      "inputs": [
        {
          "internalType": "uint256",
          "name": "",
          "type": "uint256"
        }
      ],
      "name": "products",
      "outputs": [
        {
          "internalType": "uint256",
          "name": "id",
          "type": "uint256"
        },
        {
          "internalType": "string",
          "name": "name",
          "type": "string"
        },
        {
          "internalType": "string",
          "name": "description",
          "type": "string"
        },
        {
          "internalType": "string",
          "name": "category",
          "type": "string"
        },
        {
          "internalType": "uint256",
          "name": "priceTokens",
          "type": "uint256"
        },
        {
          "internalType": "uint256",
          "name": "stock",
          "type": "uint256"
        },
        {
          "internalType": "string",
          "name": "imageUrl",
          "type": "string"
        },
        {
          "internalType": "bool",
          "name": "isActive",
          "type": "bool"
        }
      ],
      "stateMutability": "view",
      "type": "function"
    },
    {
      "inputs": [
        {
          "internalType": "uint256",
          "name": "productId",
          "type": "uint256"
        },
        {
          "internalType": "uint256",
          "name": "quantity",
          "type": "uint256"
        }
      ],
      "name": "purchaseProduct",
      "outputs": [
        {
          "internalType": "uint256",
          "name": "",
          "type": "uint256"
        }
      ],
      "stateMutability": "nonpayable",
      "type": "function"
    },
    {
      "inputs": [],
      "name": "treasury",
      "outputs": [
        {
          "internalType": "address",
          "name": "",
          "type": "address"
        }
      ],
      "stateMutability": "view",
      "type": "function"
    },
    {
      "inputs": [
        {
          "internalType": "uint256",
          "name": "productId",
          "type": "uint256"
        },
        {
          "internalType": "uint256",
          "name": "newStock",
          "type": "uint256"
        }
      ],
      "name": "updateStock",
      "outputs": [],
      "stateMutability": "nonpayable",
      "type": "function"
    },
    {
      "inputs": [
        {
          "internalType": "address",
          "name": "newTreasury",
          "type": "address"
        }
      ],
      "name": "updateTreasury",
      "outputs": [],
      "stateMutability": "nonpayable",
      "type": "function"
    },
    {
      "inputs": [
        {
          "internalType": "address",
          "name": "",
          "type": "address"
        },
        {
          "internalType": "uint256",
          "name": "",
          "type": "uint256"
        }
      ],
      "name": "userNFTs",
      "outputs": [
        {
          "internalType": "uint256",
          "name": "",
          "type": "uint256"
        }
      ],
      "stateMutability": "view",
      "type": "function"
    }
  ],
  "bytecode": "0x60806040523480156200001157600080fd5b5060405162001e8f38038062001e8f83398101604081905262000034916200009b565b600080546001600160a01b03199081163317909155600280546001600160a01b039485169083168117909155600380548316909117905560018054929093169116179055620000d3565b80516001600160a01b03811681146200009657600080fd5b919050565b60008060408385031215620000af57600080fd5b620000ba836200007e565b9150620000ca602084016200007e565b90509250929050565b611dac80620000e36000396000f3fe608060405234801561001057600080fd5b506004361061012c5760003560e01c80639dfc3dd1116100ad578063deaea2e311610071578063deaea2e3146102bf578063e0f6ef87146102d2578063f70192c9146102db578063f7bead27146102ee578063fd77e5de1461031157600080fd5b80639dfc3dd114610253578063a044042614610266578063a08b301714610279578063b9db15b41461028c578063d41250c3146102ac57600080fd5b8063576f7ea7116100f4578063576f7ea7146101d157806361d027b3146101f15780637acc0b20146102045780637f51bb1f1461022b5780638da5cb5b1461024057600080fd5b80630af2c6ca14610131578063265aa6211461014d578063291c73c31461017357806335ab58471461018657806352de4ee5146101b1575b600080fd5b61013a60075481565b6040519081526020015b60405180910390f35b61016061015b3660046114fc565b610324565b6040516101449796959493929190611565565b61013a6101813660046115cf565b6103fb565b600354610199906001600160a01b031681565b6040516001600160a01b039091168152602001610144565b6101c46101bf3660046115f9565b61042c565b604051610144919061161b565b6101e46101df3660046114fc565b610498565b604051610144919061165f565b600154610199906001600160a01b031681565b6102176102123660046114fc565b61061c565b6040516101449897969594939291906116c9565b61023e6102393660046115f9565b610880565b005b600054610199906001600160a01b031681565b61023e610261366004611743565b6108cc565b61013a610274366004611743565b610978565b61023e610287366004611808565b610d3b565b61029f61029a3660046114fc565b610ea1565b60405161014491906118c7565b600254610199906001600160a01b031681565b6101996102cd3660046114fc565b6111b5565b61013a60055481565b61023e6102e93660046114fc565b611203565b6103016102fc3660046114fc565b611315565b6040519015158152602001610144565b61023e61031f3660046114fc565b61135d565b60066020819052600091825260409091208054600182015460028301546003840154600485015460058601549686018054959794966001600160a01b0390941695929460ff9092169391926103789061197c565b80601f01602080910402602001604051908101604052809291908181526020018280546103a49061197c565b80156103f15780601f106103c6576101008083540402835291602001916103f1565b820191906000526020600020905b8154815290600101906020018083116103d457829003601f168201915b5050505050905087565b6008602052816000526040600020818154811061041757600080fd5b90600052602060002001600091509150505481565b6001600160a01b03811660009081526008602090815260409182902080548351818402810184019094528084526060939283018282801561048c57602002820191906000526020600020905b815481526020019060010190808311610478575b50505050509050919050565b6104e36040518060e00160405280600081526020016000815260200160006001600160a01b031681526020016000815260200160001515815260200160008152602001606081525090565b6000821180156104f557506007548211155b61051a5760405162461bcd60e51b8152600401610511906119b6565b60405180910390fd5b600082815260066020818152604092839020835160e0810185528154815260018201549281019290925260028101546001600160a01b03169382019390935260038301546060820152600483015460ff1615156080820152600583015460a0820152908201805491929160c0840191906105939061197c565b80601f01602080910402602001604051908101604052809291908181526020018280546105bf9061197c565b801561060c5780601f106105e15761010080835404028352916020019161060c565b820191906000526020600020905b8154815290600101906020018083116105ef57829003601f168201915b5050505050815250509050919050565b6004602052600090815260409020805460018201805491929161063e9061197c565b80601f016020809104026020016040519081016040528092919081815260200182805461066a9061197c565b80156106b75780601f1061068c576101008083540402835291602001916106b7565b820191906000526020600020905b81548152906001019060200180831161069a57829003601f168201915b5050505050908060020180546106cc9061197c565b80601f01602080910402602001604051908101604052809291908181526020018280546106f89061197c565b80156107455780601f1061071a57610100808354040283529160200191610745565b820191906000526020600020905b81548152906001019060200180831161072857829003601f168201915b50505050509080600301805461075a9061197c565b80601f01602080910402602001604051908101604052809291908181526020018280546107869061197c565b80156107d35780601f106107a8576101008083540402835291602001916107d3565b820191906000526020600020905b8154815290600101906020018083116107b657829003601f168201915b5050505050908060040154908060050154908060060180546107f49061197c565b80601f01602080910402602001604051908101604052809291908181526020018280546108209061197c565b801561086d5780601f106108425761010080835404028352916020019161086d565b820191906000526020600020905b81548152906001019060200180831161085057829003601f168201915b5050506007909301549192505060ff1688565b6000546001600160a01b031633146108aa5760405162461bcd60e51b8152600401610511906119db565b600180546001600160a01b0319166001600160a01b0392909216919091179055565b6000546001600160a01b031633146108f65760405162461bcd60e51b8152600401610511906119db565b60008211801561090857506005548211155b6109245760405162461bcd60e51b815260040161051190611a12565b600082815260046020526040908190206005018290555182907febcfd4ce21b6aefd071d3e0f4bfa57e491b5308a1ffb5a3a8e4805e23f00b8d79061096c9084815260200190565b60405180910390a25050565b60008082116109c95760405162461bcd60e51b815260206004820152601960248201527f5175616e74697479206d75737420626520706f736974697665000000000000006044820152606401610511565b6000831180156109db57506005548311155b6109f75760405162461bcd60e51b815260040161051190611a12565b6000838152600460205260409020600781015460ff16610a4e5760405162461bcd60e51b815260206004820152601260248201527150726f64756374206e6f742061637469766560701b6044820152606401610511565b8281600501541015610a975760405162461bcd60e51b8152602060048201526012602482015271496e73756666696369656e742073746f636b60701b6044820152606401610511565b6000838260040154610aa99190611a51565b6003546001546040516323b872dd60e01b81523360048201526001600160a01b0391821660248201526044810184905292935016906323b872dd906064016020604051808303816000875af1158015610b06573d6000803e3d6000fd5b505050506040513d601f19601f82011682018060405250810190610b2a9190611a68565b610b6e5760405162461bcd60e51b8152602060048201526015602482015274151bdad95b881d1c985b9cd9995c8819985a5b1959605a1b6044820152606401610511565b83826005016000828254610b829190611a8a565b9091555050600582015460405190815285907febcfd4ce21b6aefd071d3e0f4bfa57e491b5308a1ffb5a3a8e4805e23f00b8d79060200160405180910390a260078054906000610bd183611a9d565b91905055506000610be1866113d0565b83600101610bee876113d0565b610bf7856113d0565b604051602001610c0a9493929190611ad2565b60408051808303601f1901815260e08301825260075480845260208085018b815233868601908152426060880190815260006080890181815260a08a0182815260c08b0189815297835260069687905298909120895181559351600185015591516002840180546001600160a01b0319166001600160a01b039092169190911790555160038301555160048201805460ff1916911515919091179055935160058501559051919450820190610cbf9082611c43565b505033600081815260086020908152604080832060078054825460018101845592865294849020909101939093559154825187815242928101929092528a945092917f87aec4c01258b58d7e593e097d155b85a848e29432591c799339099537212ef4910160405180910390a460075493505050505b92915050565b6000546001600160a01b03163314610d655760405162461bcd60e51b8152600401610511906119db565b60058054906000610d7583611a9d565b9190505550604051806101000160405280600554815260200187815260200186815260200185815260200184815260200183815260200182815260200160011515815250600460006005548152602001908152602001600020600082015181600001556020820151816001019081610ded9190611c43565b5060408201516002820190610e029082611c43565b5060608201516003820190610e179082611c43565b506080820151600482015560a0820151600582015560c08201516006820190610e409082611c43565b5060e091909101516007909101805460ff19169115159190911790556005546040517fcca07c742c5274e8b72111ba69566aa4442450bfc50bd897ea38d0170d1accfc90610e919089908790611d03565b60405180910390a2505050505050565b610eeb604051806101000160405280600081526020016060815260200160608152602001606081526020016000815260200160008152602001606081526020016000151581525090565b600082118015610efd57506005548211155b610f195760405162461bcd60e51b815260040161051190611a12565b600460008381526020019081526020016000206040518061010001604052908160008201548152602001600182018054610f529061197c565b80601f0160208091040260200160405190810160405280929190818152602001828054610f7e9061197c565b8015610fcb5780601f10610fa057610100808354040283529160200191610fcb565b820191906000526020600020905b815481529060010190602001808311610fae57829003601f168201915b50505050508152602001600282018054610fe49061197c565b80601f01602080910402602001604051908101604052809291908181526020018280546110109061197c565b801561105d5780601f106110325761010080835404028352916020019161105d565b820191906000526020600020905b81548152906001019060200180831161104057829003601f168201915b505050505081526020016003820180546110769061197c565b80601f01602080910402602001604051908101604052809291908181526020018280546110a29061197c565b80156110ef5780601f106110c4576101008083540402835291602001916110ef565b820191906000526020600020905b8154815290600101906020018083116110d257829003601f168201915b50505050508152602001600482015481526020016005820154815260200160068201805461111c9061197c565b80601f01602080910402602001604051908101604052809291908181526020018280546111489061197c565b80156111955780601f1061116a57610100808354040283529160200191611195565b820191906000526020600020905b81548152906001019060200180831161117857829003601f168201915b50505091835250506007919091015460ff16151560209091015292915050565b600080821180156111c857506007548211155b6111e45760405162461bcd60e51b8152600401610511906119b6565b506000908152600660205260409020600201546001600160a01b031690565b6000546001600160a01b0316331461122d5760405162461bcd60e51b8152600401610511906119db565b60008111801561123f57506007548111155b61125b5760405162461bcd60e51b8152600401610511906119b6565b60008181526006602052604090206004015460ff16156112b05760405162461bcd60e51b815260206004820152601060248201526f13919508185b1c9958591e481d5cd95960821b6044820152606401610511565b6000818152600660205260409081902060048101805460ff19166001179055426005909101819055905182917f8dfe6c49ab882df18d5bb510201879e9481725599339ea2a7f01da93889b0b439161130a91815260200190565b60405180910390a250565b6000808211801561132857506007548211155b6113445760405162461bcd60e51b8152600401610511906119b6565b5060009081526006602052604090206004015460ff1690565b6000546001600160a01b031633146113875760405162461bcd60e51b8152600401610511906119db565b60008111801561139957506005548111155b6113b55760405162461bcd60e51b815260040161051190611a12565b6000908152600460205260409020600701805460ff19169055565b6060816000036113f75750506040805180820190915260018152600360fc1b602082015290565b8160005b8115611421578061140b81611a9d565b915061141a9050600a83611d25565b91506113fb565b60008167ffffffffffffffff81111561143c5761143c611765565b6040519080825280601f01601f191660200182016040528015611466576020820181803683370190505b509050815b85156114f35761147c600182611a8a565b9050600061148b600a88611d25565b61149690600a611a51565b6114a09088611a8a565b6114ab906030611d47565b905060008160f81b9050808484815181106114c8576114c8611d60565b60200101906001600160f81b031916908160001a9053506114ea600a89611d25565b9750505061146b565b50949350505050565b60006020828403121561150e57600080fd5b5035919050565b60005b83811015611530578181015183820152602001611518565b50506000910152565b60008151808452611551816020860160208601611515565b601f01601f19169290920160200192915050565b87815286602082015260018060a01b038616604082015284606082015283151560808201528260a082015260e060c082015260006115a660e0830184611539565b9998505050505050505050565b80356001600160a01b03811681146115ca57600080fd5b919050565b600080604083850312156115e257600080fd5b6115eb836115b3565b946020939093013593505050565b60006020828403121561160b57600080fd5b611614826115b3565b9392505050565b6020808252825182820181905260009190848201906040850190845b8181101561165357835183529284019291840191600101611637565b50909695505050505050565b60208152815160208201526020820151604082015260018060a01b036040830151166060820152606082015160808201526080820151151560a082015260a082015160c0820152600060c083015160e0808401526116c1610100840182611539565b949350505050565b60006101008a83528060208401526116e38184018b611539565b905082810360408401526116f7818a611539565b9050828103606084015261170b8189611539565b90508660808401528560a084015282810360c084015261172b8186611539565b91505082151560e08301529998505050505050505050565b6000806040838503121561175657600080fd5b50508035926020909101359150565b634e487b7160e01b600052604160045260246000fd5b600082601f83011261178c57600080fd5b813567ffffffffffffffff808211156117a7576117a7611765565b604051601f8301601f19908116603f011681019082821181831017156117cf576117cf611765565b816040528381528660208588010111156117e857600080fd5b836020870160208301376000602085830101528094505050505092915050565b60008060008060008060c0878903121561182157600080fd5b863567ffffffffffffffff8082111561183957600080fd5b6118458a838b0161177b565b9750602089013591508082111561185b57600080fd5b6118678a838b0161177b565b9650604089013591508082111561187d57600080fd5b6118898a838b0161177b565b9550606089013594506080890135935060a08901359150808211156118ad57600080fd5b506118ba89828a0161177b565b9150509295509295509295565b6020815281516020820152600060208301516101008060408501526118f0610120850183611539565b91506040850151601f198086850301606087015261190e8483611539565b9350606087015191508086850301608087015261192b8483611539565b9350608087015160a087015260a087015160c087015260c08701519150808685030160e08701525061195d8382611539565b92505060e08501516119728286018215159052565b5090949350505050565b600181811c9082168061199057607f821691505b6020821081036119b057634e487b7160e01b600052602260045260246000fd5b50919050565b6020808252600b908201526a125b9d985b1a590813919560aa1b604082015260600190565b60208082526018908201527f4f6e6c79206f776e65722063616e2063616c6c20746869730000000000000000604082015260600190565b6020808252600f908201526e125b9d985b1a59081c1c9bd91d58dd608a1b604082015260600190565b634e487b7160e01b600052601160045260246000fd5b8082028115828204841417610d3557610d35611a3b565b600060208284031215611a7a57600080fd5b8151801515811461161457600080fd5b81810381811115610d3557610d35611a3b565b600060018201611aaf57611aaf611a3b565b5060010190565b60008151611ac8818560208601611515565b9290920192915050565b6c3d91383937b23ab1ba24b2111d60991b815284516000906020611afc82600d8601838b01611515565b6f1611383937b23ab1ba2730b6b2911d1160811b600d928501928301528654601d90600090611b2a8161197c565b60018281168015611b425760018114611b5b57611b8b565b60ff198416888701528215158302880186019450611b8b565b8c6000528660002060005b84811015611b815781548a8201890152908301908801611b66565b5050858389010194505b50505050611be6611bd9611bd3611bbe611bb8856c11161138bab0b73a34ba3c911d60991b8152600d0190565b8c611ab6565b681611383934b1b2911d60b91b815260090190565b89611ab6565b607d60f81b815260010190565b9a9950505050505050505050565b601f821115611c3e57600081815260208120601f850160051c81016020861015611c1b5750805b601f850160051c820191505b81811015611c3a57828155600101611c27565b5050505b505050565b815167ffffffffffffffff811115611c5d57611c5d611765565b611c7181611c6b845461197c565b84611bf4565b602080601f831160018114611ca65760008415611c8e5750858301515b600019600386901b1c1916600185901b178555611c3a565b600085815260208120601f198616915b82811015611cd557888601518255948401946001909101908401611cb6565b5085821015611cf35787850151600019600388901b60f8161c191681555b5050505050600190811b01905550565b604081526000611d166040830185611539565b90508260208301529392505050565b600082611d4257634e487b7160e01b600052601260045260246000fd5b500490565b60ff8181168382160190811115610d3557610d35611a3b565b634e487b7160e01b600052603260045260246000fdfea26469706673582212207343b26308329e78357c5dec835a271d49fe2fa09af1dee6e36a8a4d1ce5316e64736f6c63430008140033",
  "linkReferences": {},
  "deployedLinkReferences": {}
}