{
  "_format": "hh-sol-artifact-1",
  "contractName": "FitnessContract",
  "sourceName": "contracts/FitnessContract.sol",
  "abi": [
    {
      "inputs": [
        {
          "internalType": "address",
          "name": "_fitTokenAddress",
          "type": "address"
        }
      ],
      "stateMutability": "nonpayable",
      "type": "constructor"
    },
    {
      "anonymous": false,
      "inputs": [
        {
          "indexed": true,
          "internalType": "uint256",
          "name": "challengeId",
          "type": "uint256"
        },
        {
          "indexed": false,
          "internalType": "string",
          "name": "title",
          "type": "string"
        },
        {
          "indexed": false,
          "internalType": "uint256",
          "name": "target",
          "type": "uint256"
        },
        {
          "indexed": false,
          "internalType": "uint256",
          "name": "reward",
          "type": "uint256"
        }
      ],
      "name": "ChallengeAdded",
      "type": "event"
    },
    {
      "anonymous": false,
      "inputs": [
        {
          "indexed": true,
          "internalType": "address",
          "name": "user",
          "type": "address"
        },
        {
          "indexed": true,
          "internalType": "uint256",
          "name": "challengeId",
          "type": "uint256"
        },
        {
          "indexed": false,
          "internalType": "uint256",
          "name": "reward",
          "type": "uint256"
        },
        {
          "indexed": false,
          "internalType": "uint256",
          "name": "timestamp",
          "type": "uint256"
        }
      ],
      "name": "ChallengeCompleted",
      "type": "event"
    },
    {
      "anonymous": false,
      "inputs": [
        {
          "indexed": true,
          "internalType": "address",
          "name": "user",
          "type": "address"
        },
        {
          "indexed": false,
          "internalType": "uint256",
          "name": "amount",
          "type": "uint256"
        },
        {
          "indexed": false,
          "internalType": "string",
          "name": "reason",
          "type": "string"
        }
      ],
      "name": "RewardDistributed",
      "type": "event"
    },
    {
      "anonymous": false,
      "inputs": [
        {
          "indexed": true,
          "internalType": "address",
          "name": "user",
          "type": "address"
        },
        {
          "indexed": false,
          "internalType": "uint256",
          "name": "steps",
          "type": "uint256"
        },
        {
          "indexed": false,
          "internalType": "uint256",
          "name": "timestamp",
          "type": "uint256"
        }
      ],
      "name": "WorkoutLogged",
      "type": "event"
    },
    {
      "inputs": [
        {
          "internalType": "string",
          "name": "title",
          "type": "string"
        },
        {
          "internalType": "string",
          "name": "challengeType",
          "type": "string"
        },
        {
          "internalType": "uint256",
          "name": "target",
          "type": "uint256"
        },
        {
          "internalType": "uint256",
          "name": "reward",
          "type": "uint256"
        },
        {
          "internalType": "uint256",
          "name": "level",
          "type": "uint256"
        }
      ],
      "name": "addChallenge",
      "outputs": [],
      "stateMutability": "nonpayable",
      "type": "function"
    },
    {
      "inputs": [
        {
          "internalType": "address",
          "name": "",
          "type": "address"
        },
        {
          "internalType": "uint256",
          "name": "",
          "type": "uint256"
        }
      ],
      "name": "challengeCompleted",
      "outputs": [
        {
          "internalType": "bool",
          "name": "",
          "type": "bool"
        }
      ],
      "stateMutability": "view",
      "type": "function"
    },
    {
      "inputs": [],
      "name": "challengeCount",
      "outputs": [
        {
          "internalType": "uint256",
          "name": "",
          "type": "uint256"
        }
      ],
      "stateMutability": "view",
      "type": "function"
    },
    {
      "inputs": [
        {
          "internalType": "uint256",
          "name": "",
          "type": "uint256"
        }
      ],
      "name": "challenges",
      "outputs": [
        {
          "internalType": "uint256",
          "name": "id",
          "type": "uint256"
        },
        {
          "internalType": "string",
          "name": "title",
          "type": "string"
        },
        {
          "internalType": "string",
          "name": "challengeType",
          "type": "string"
        },
        {
          "internalType": "uint256",
          "name": "target",
          "type": "uint256"
        },
        {
          "internalType": "uint256",
          "name": "reward",
          "type": "uint256"
        },
        {
          "internalType": "uint256",
          "name": "level",
          "type": "uint256"
        },
        {
          "internalType": "bool",
          "name": "isActive",
          "type": "bool"
        }
      ],
      "stateMutability": "view",
      "type": "function"
    },
    {
      "inputs": [
        {
          "internalType": "uint256",
          "name": "challengeId",
          "type": "uint256"
        }
      ],
      "name": "deactivateChallenge",
      "outputs": [],
      "stateMutability": "nonpayable",
      "type": "function"
    },
    {
      "inputs": [
        {
          "internalType": "address",
          "name": "user",
          "type": "address"
        },
        {
          "internalType": "uint256",
          "name": "amount",
          "type": "uint256"
        }
      ],
      "name": "distributeReward",
      "outputs": [],
      "stateMutability": "nonpayable",
      "type": "function"
    },
    {
      "inputs": [],
      "name": "fitToken",
      "outputs": [
        {
          "internalType": "contract IHRC20",
          "name": "",
          "type": "address"
        }
      ],
      "stateMutability": "view",
      "type": "function"
    },
    {
      "inputs": [],
      "name": "fitTokenAddress",
      "outputs": [
        {
          "internalType": "address",
          "name": "",
          "type": "address"
        }
      ],
      "stateMutability": "view",
      "type": "function"
    },
    {
      "inputs": [
        {
          "internalType": "uint256",
          "name": "challengeId",
          "type": "uint256"
        }
      ],
      "name": "getChallenge",
      "outputs": [
        {
          "components": [
            {
              "internalType": "uint256",
              "name": "id",
              "type": "uint256"
            },
            {
              "internalType": "string",
              "name": "title",
              "type": "string"
            },
            {
              "internalType": "string",
              "name": "challengeType",
              "type": "string"
            },
            {
              "internalType": "uint256",
              "name": "target",
              "type": "uint256"
            },
            {
              "internalType": "uint256",
              "name": "reward",
              "type": "uint256"
            },
            {
              "internalType": "uint256",
              "name": "level",
              "type": "uint256"
            },
            {
              "internalType": "bool",
              "name": "isActive",
              "type": "bool"
            }
          ],
          "internalType": "struct FitnessContract.Challenge",
          "name": "",
          "type": "tuple"
        }
      ],
      "stateMutability": "view",
      "type": "function"
    },
    {
      "inputs": [
        {
          "internalType": "address",
          "name": "user",
          "type": "address"
        },
        {
          "internalType": "uint256",
          "name": "challengeId",
          "type": "uint256"
        }
      ],
      "name": "getChallengeProgress",
      "outputs": [
        {
          "internalType": "uint256",
          "name": "",
          "type": "uint256"
        }
      ],
      "stateMutability": "view",
      "type": "function"
    },
    {
      "inputs": [],
      "name": "getContractBalance",
      "outputs": [
        {
          "internalType": "uint256",
          "name": "",
          "type": "uint256"
        }
      ],
      "stateMutability": "view",
      "type": "function"
    },
    {
      "inputs": [
        {
          "internalType": "address",
          "name": "user",
          "type": "address"
        }
      ],
      "name": "getTotalSteps",
      "outputs": [
        {
          "internalType": "uint256",
          "name": "",
          "type": "uint256"
        }
      ],
      "stateMutability": "view",
      "type": "function"
    },
    {
      "inputs": [
        {
          "internalType": "address",
          "name": "user",
          "type": "address"
        },
        {
          "internalType": "uint256",
          "name": "challengeId",
          "type": "uint256"
        }
      ],
      "name": "isChallengeCompleted",
      "outputs": [
        {
          "internalType": "bool",
          "name": "",
          "type": "bool"
        }
      ],
      "stateMutability": "view",
      "type": "function"
    },
    {
      "inputs": [],
      "name": "owner",
      "outputs": [
        {
          "internalType": "address",
          "name": "",
          "type": "address"
        }
      ],
      "stateMutability": "view",
      "type": "function"
    },
    {
      "inputs": [
        {
          "internalType": "address",
          "name": "",
          "type": "address"
        }
      ],
      "name": "totalSteps",
      "outputs": [
        {
          "internalType": "uint256",
          "name": "",
          "type": "uint256"
        }
      ],
      "stateMutability": "view",
      "type": "function"
    },
    {
      "inputs": [
        {
          "internalType": "address",
          "name": "user",
          "type": "address"
        },
        {
          "internalType": "uint256",
          "name": "steps",
          "type": "uint256"
        }
      ],
      "name": "updateSteps",
      "outputs": [],
      "stateMutability": "nonpayable",
      "type": "function"
    },
    {
      "inputs": [
        {
          "internalType": "address",
          "name": "",
          "type": "address"
        },
        {
          "internalType": "uint256",
          "name": "",
          "type": "uint256"
        }
      ],
      "name": "userChallengeProgress",
      "outputs": [
        {
          "internalType": "uint256",
          "name": "",
          "type": "uint256"
        }
      ],
      "stateMutability": "view",
      "type": "function"
    },
    {
      "inputs": [
        {
          "internalType": "uint256",
          "name": "amount",
          "type": "uint256"
        }
      ],
      "name": "withdrawTokens",
      "outputs": [],
      "stateMutability": "nonpayable",
      "type": "function"
    }
  ],
  "bytecode": "0x608060405234801561001057600080fd5b5060405161185d38038061185d83398101604081905261002f9161006c565b600080546001600160a01b03199081163317909155600180546001600160a01b03939093169282168317905560028054909116909117905561009c565b60006020828403121561007e57600080fd5b81516001600160a01b038116811461009557600080fd5b9392505050565b6117b2806100ab6000396000f3fe608060405234801561001057600080fd5b50600436106101165760003560e01c8063739ff475116100a2578063a2f0572511610071578063a2f05725146102a2578063cb345bfd146102ab578063cff9b1df146102d6578063d41250c3146102e9578063d6d07dfd146102fc57600080fd5b8063739ff475146102205780638da5cb5b146102495780638f1d37761461025c5780639abf01eb1461028257600080fd5b806335ab5847116100e957806335ab5847146101a65780634fcc2c88146101d157806352432edc146101e457806360e427be146101f75780636f9fb98a1461020a57600080fd5b806317877a5f1461011b5780631bdd4b741461015e5780631ec8bb8c1461017e578063315a095d14610193575b600080fd5b6101496101293660046112bf565b600760209081526000928352604080842090915290825290205460ff1681565b60405190151581526020015b60405180910390f35b61017161016c3660046112e9565b610335565b6040516101559190611348565b61019161018c3660046112bf565b610551565b005b6101916101a13660046112e9565b61071f565b6002546101b9906001600160a01b031681565b6040516001600160a01b039091168152602001610155565b6101916101df3660046112e9565b6107c6565b6101916101f2366004611466565b610860565b6101916102053660046112bf565b610996565b610212610a59565b604051908152602001610155565b61021261022e3660046114e5565b6001600160a01b031660009081526003602052604090205490565b6000546101b9906001600160a01b031681565b61026f61026a3660046112e9565b610acb565b6040516101559796959493929190611507565b6102126102903660046114e5565b60036020526000908152604090205481565b61021260055481565b6102126102b93660046112bf565b600660209081526000928352604080842090915290825290205481565b6102126102e43660046112bf565b610c1a565b6001546101b9906001600160a01b031681565b61014961030a3660046112bf565b6001600160a01b03919091166000908152600760209081526040808320938352929052205460ff1690565b6103776040518060e001604052806000815260200160608152602001606081526020016000815260200160008152602001600081526020016000151581525090565b60008211801561038957506005548211155b6103d15760405162461bcd60e51b8152602060048201526014602482015273125b9d985b1a590818da185b1b195b99d948125160621b60448201526064015b60405180910390fd5b600460008381526020019081526020016000206040518060e0016040529081600082015481526020016001820180546104099061155b565b80601f01602080910402602001604051908101604052809291908181526020018280546104359061155b565b80156104825780601f1061045757610100808354040283529160200191610482565b820191906000526020600020905b81548152906001019060200180831161046557829003601f168201915b5050505050815260200160028201805461049b9061155b565b80601f01602080910402602001604051908101604052809291908181526020018280546104c79061155b565b80156105145780601f106104e957610100808354040283529160200191610514565b820191906000526020600020905b8154815290600101906020018083116104f757829003601f168201915b505050918352505060038201546020820152600482015460408201526005820154606082015260069091015460ff16151560809091015292915050565b6000546001600160a01b0316331461057b5760405162461bcd60e51b81526004016103c890611595565b6002546040516370a0823160e01b815230600482015282916001600160a01b0316906370a0823190602401602060405180830381865afa1580156105c3573d6000803e3d6000fd5b505050506040513d601f19601f820116820180604052508101906105e791906115cc565b10156106355760405162461bcd60e51b815260206004820152601d60248201527f496e73756666696369656e7420636f6e74726163742062616c616e636500000060448201526064016103c8565b60025460405163a9059cbb60e01b81526001600160a01b038481166004830152602482018490529091169063a9059cbb906044016020604051808303816000875af1158015610688573d6000803e3d6000fd5b505050506040513d601f19601f820116820180604052508101906106ac91906115e5565b50816001600160a01b03167f49649141d16971a88c3cfdd73fec34babb1cf163cf8b804c8f537a023c6ce506826040516107139181526040602082018190526013908201527226b0b73ab0b6103234b9ba3934b13aba34b7b760691b606082015260800190565b60405180910390a25050565b6000546001600160a01b031633146107495760405162461bcd60e51b81526004016103c890611595565b60025460005460405163a9059cbb60e01b81526001600160a01b0391821660048201526024810184905291169063a9059cbb906044016020604051808303816000875af115801561079e573d6000803e3d6000fd5b505050506040513d601f19601f820116820180604052508101906107c291906115e5565b5050565b6000546001600160a01b031633146107f05760405162461bcd60e51b81526004016103c890611595565b60008111801561080257506005548111155b6108455760405162461bcd60e51b8152602060048201526014602482015273125b9d985b1a590818da185b1b195b99d948125160621b60448201526064016103c8565b6000908152600460205260409020600601805460ff19169055565b6000546001600160a01b0316331461088a5760405162461bcd60e51b81526004016103c890611595565b6005805490600061089a8361161d565b90915550506040805160e0810182526005548082526020808301898152838501899052606084018890526080840187905260a08401869052600160c085018190526000938452600490925293909120825181559251919291908201906109009082611684565b50604082015160028201906109159082611684565b50606082015160038201556080820151600482015560a082015160058083019190915560c0909201516006909101805460ff1916911515919091179055546040517ff023dafcc2c56495b9b1f934cfb2e0f6e182eb9b0ba8b8d70ee6faa827aa21229061098790889087908790611744565b60405180910390a25050505050565b600081116109df5760405162461bcd60e51b81526020600482015260166024820152755374657073206d75737420626520706f73697469766560501b60448201526064016103c8565b6001600160a01b03821660009081526003602052604081208054839290610a07908490611769565b9091555050604080518281524260208201526001600160a01b038416917f2e5930daff7b3ac8f0b5c249074fbfd4de5ffac051ef6fff5d07356a1f37454d910160405180910390a26107c28282610c45565b6002546040516370a0823160e01b81523060048201526000916001600160a01b0316906370a0823190602401602060405180830381865afa158015610aa2573d6000803e3d6000fd5b505050506040513d601f19601f82011682018060405250810190610ac691906115cc565b905090565b60046020526000908152604090208054600182018054919291610aed9061155b565b80601f0160208091040260200160405190810160405280929190818152602001828054610b199061155b565b8015610b665780601f10610b3b57610100808354040283529160200191610b66565b820191906000526020600020905b815481529060010190602001808311610b4957829003601f168201915b505050505090806002018054610b7b9061155b565b80601f0160208091040260200160405190810160405280929190818152602001828054610ba79061155b565b8015610bf45780601f10610bc957610100808354040283529160200191610bf4565b820191906000526020600020905b815481529060010190602001808311610bd757829003601f168201915b505050506003830154600484015460058501546006909501549394919390925060ff1687565b6001600160a01b03821660009081526006602090815260408083208484529091529020545b92915050565b60015b6005548111610f3c576000600460008381526020019081526020016000206040518060e001604052908160008201548152602001600182018054610c8b9061155b565b80601f0160208091040260200160405190810160405280929190818152602001828054610cb79061155b565b8015610d045780601f10610cd957610100808354040283529160200191610d04565b820191906000526020600020905b815481529060010190602001808311610ce757829003601f168201915b50505050508152602001600282018054610d1d9061155b565b80601f0160208091040260200160405190810160405280929190818152602001828054610d499061155b565b8015610d965780601f10610d6b57610100808354040283529160200191610d96565b820191906000526020600020905b815481529060010190602001808311610d7957829003601f168201915b505050918352505060038201546020820152600482015460408201526005820154606082015260069091015460ff16151560809091015260c08101519091501580610e0457506001600160a01b038416600090815260076020908152604080832085845290915290205460ff165b15610e0f5750610f2a565b604080518082018252600b81526a6461696c795f737465707360a81b6020918201529082015180519101207fa24fd093bfec0f3a330b34414214e487d4228f5d5c0b6d727a9b5a7492e57e061480610eb35750604080518082018252600e81526d6475726174696f6e5f737465707360901b6020918201529082015180519101207fefa541b54fb760280c9eaa4927372a88e0055e17a0155a796e0a1f3dc7907e70145b15610f28576001600160a01b038416600090815260066020908152604080832085845290915281208054859290610eeb908490611769565b909155505060608101516001600160a01b038516600090815260066020908152604080832086845290915290205410610f2857610f288483610f41565b505b80610f348161161d565b915050610c48565b505050565b6000600460008381526020019081526020016000206040518060e001604052908160008201548152602001600182018054610f7b9061155b565b80601f0160208091040260200160405190810160405280929190818152602001828054610fa79061155b565b8015610ff45780601f10610fc957610100808354040283529160200191610ff4565b820191906000526020600020905b815481529060010190602001808311610fd757829003601f168201915b5050505050815260200160028201805461100d9061155b565b80601f01602080910402602001604051908101604052809291908181526020018280546110399061155b565b80156110865780601f1061105b57610100808354040283529160200191611086565b820191906000526020600020905b81548152906001019060200180831161106957829003601f168201915b505050918352505060038201546020808301919091526004808401546040808501919091526005850154606085015260069094015460ff1615156080938401526001600160a01b0388811660009081526007845285812089825290935291849020805460ff191660011790559184015160025493516370a0823160e01b8152309381019390935293945091909116906370a0823190602401602060405180830381865afa15801561113b573d6000803e3d6000fd5b505050506040513d601f19601f8201168201806040525081019061115f91906115cc565b1061125457600254608082015160405163a9059cbb60e01b81526001600160a01b038681166004830152602482019290925291169063a9059cbb906044016020604051808303816000875af11580156111bc573d6000803e3d6000fd5b505050506040513d601f19601f820116820180604052508101906111e091906115e5565b50826001600160a01b03167f49649141d16971a88c3cfdd73fec34babb1cf163cf8b804c8f537a023c6ce506826080015160405161124b9181526040602082018190526013908201527210da185b1b195b99d94818dbdb5c1b195d1959606a1b606082015260800190565b60405180910390a25b60808101516040805191825242602083015283916001600160a01b038616917ff48420247edee4c80e87eae4089dc2767c88017a729f4fe6c52144a823476abe910160405180910390a3505050565b80356001600160a01b03811681146112ba57600080fd5b919050565b600080604083850312156112d257600080fd5b6112db836112a3565b946020939093013593505050565b6000602082840312156112fb57600080fd5b5035919050565b6000815180845260005b818110156113285760208185018101518683018201520161130c565b506000602082860101526020601f19601f83011685010191505092915050565b60208152815160208201526000602083015160e0604084015261136f610100840182611302565b90506040840151601f1984830301606085015261138c8282611302565b91505060608401516080840152608084015160a084015260a084015160c084015260c0840151151560e08401528091505092915050565b634e487b7160e01b600052604160045260246000fd5b600082601f8301126113ea57600080fd5b813567ffffffffffffffff80821115611405576114056113c3565b604051601f8301601f19908116603f0116810190828211818310171561142d5761142d6113c3565b8160405283815286602085880101111561144657600080fd5b836020870160208301376000602085830101528094505050505092915050565b600080600080600060a0868803121561147e57600080fd5b853567ffffffffffffffff8082111561149657600080fd5b6114a289838a016113d9565b965060208801359150808211156114b857600080fd5b506114c5888289016113d9565b959895975050505060408401359360608101359360809091013592509050565b6000602082840312156114f757600080fd5b611500826112a3565b9392505050565b87815260e06020820152600061152060e0830189611302565b82810360408401526115328189611302565b9150508560608301528460808301528360a083015282151560c083015298975050505050505050565b600181811c9082168061156f57607f821691505b60208210810361158f57634e487b7160e01b600052602260045260246000fd5b50919050565b60208082526018908201527f4f6e6c79206f776e65722063616e2063616c6c20746869730000000000000000604082015260600190565b6000602082840312156115de57600080fd5b5051919050565b6000602082840312156115f757600080fd5b8151801515811461150057600080fd5b634e487b7160e01b600052601160045260246000fd5b60006001820161162f5761162f611607565b5060010190565b601f821115610f3c57600081815260208120601f850160051c8101602086101561165d5750805b601f850160051c820191505b8181101561167c57828155600101611669565b505050505050565b815167ffffffffffffffff81111561169e5761169e6113c3565b6116b2816116ac845461155b565b84611636565b602080601f8311600181146116e757600084156116cf5750858301515b600019600386901b1c1916600185901b17855561167c565b600085815260208120601f198616915b82811015611716578886015182559484019460019091019084016116f7565b50858210156117345787850151600019600388901b60f8161c191681555b5050505050600190811b01905550565b6060815260006117576060830186611302565b60208301949094525060400152919050565b80820180821115610c3f57610c3f61160756fea26469706673582212203e9da24537c6fafe8eb8fa1e459d0618fcd0e00c8818c021ba01b55b24d884ca64736f6c63430008140033",
  "linkReferences": {},
  "deployedLinkReferences": {}
}