{
  "_format": "hh-sol-artifact-1",
  "contractName": "FitnessContract",
  "sourceName": "contracts/FitnessContract.sol",
  "abi": [
    {
      "inputs": [
        {
          "internalType": "address",
          "name": "_fitTokenAddress",
          "type": "address"
        }
      ],
      "stateMutability": "nonpayable",
      "type": "constructor"
    },
    {
      "anonymous": false,
      "inputs": [
        {
          "indexed": true,
          "internalType": "uint256",
          "name": "challengeId",
          "type": "uint256"
        },
        {
          "indexed": false,
          "internalType": "uint256",
          "name": "target",
          "type": "uint256"
        },
        {
          "indexed": false,
          "internalType": "uint256",
          "name": "reward",
          "type": "uint256"
        },
        {
          "indexed": false,
          "internalType": "uint256",
          "name": "level",
          "type": "uint256"
        },
        {
          "indexed": false,
          "internalType": "uint256",
          "name": "challengeType",
          "type": "uint256"
        }
      ],
      "name": "ChallengeAdded",
      "type": "event"
    },
    {
      "anonymous": false,
      "inputs": [
        {
          "indexed": true,
          "internalType": "address",
          "name": "user",
          "type": "address"
        },
        {
          "indexed": true,
          "internalType": "uint256",
          "name": "challengeId",
          "type": "uint256"
        },
        {
          "indexed": false,
          "internalType": "uint256",
          "name": "reward",
          "type": "uint256"
        },
        {
          "indexed": false,
          "internalType": "uint256",
          "name": "timestamp",
          "type": "uint256"
        }
      ],
      "name": "ChallengeCompleted",
      "type": "event"
    },
    {
      "anonymous": false,
      "inputs": [
        {
          "indexed": true,
          "internalType": "address",
          "name": "user",
          "type": "address"
        },
        {
          "indexed": false,
          "internalType": "uint256",
          "name": "newLevel",
          "type": "uint256"
        }
      ],
      "name": "LevelUp",
      "type": "event"
    },
    {
      "anonymous": false,
      "inputs": [
        {
          "indexed": true,
          "internalType": "address",
          "name": "user",
          "type": "address"
        },
        {
          "indexed": false,
          "internalType": "uint256",
          "name": "amount",
          "type": "uint256"
        },
        {
          "indexed": false,
          "internalType": "string",
          "name": "reason",
          "type": "string"
        }
      ],
      "name": "RewardDistributed",
      "type": "event"
    },
    {
      "anonymous": false,
      "inputs": [
        {
          "indexed": true,
          "internalType": "address",
          "name": "user",
          "type": "address"
        },
        {
          "indexed": false,
          "internalType": "uint256",
          "name": "steps",
          "type": "uint256"
        },
        {
          "indexed": false,
          "internalType": "uint256",
          "name": "timestamp",
          "type": "uint256"
        }
      ],
      "name": "WorkoutLogged",
      "type": "event"
    },
    {
      "inputs": [
        {
          "internalType": "uint256",
          "name": "target",
          "type": "uint256"
        },
        {
          "internalType": "uint256",
          "name": "reward",
          "type": "uint256"
        },
        {
          "internalType": "uint256",
          "name": "level",
          "type": "uint256"
        },
        {
          "internalType": "uint256",
          "name": "cType",
          "type": "uint256"
        }
      ],
      "name": "addChallenge",
      "outputs": [],
      "stateMutability": "nonpayable",
      "type": "function"
    },
    {
      "inputs": [
        {
          "internalType": "uint256",
          "name": "",
          "type": "uint256"
        }
      ],
      "name": "challengeActive",
      "outputs": [
        {
          "internalType": "bool",
          "name": "",
          "type": "bool"
        }
      ],
      "stateMutability": "view",
      "type": "function"
    },
    {
      "inputs": [
        {
          "internalType": "address",
          "name": "",
          "type": "address"
        },
        {
          "internalType": "uint256",
          "name": "",
          "type": "uint256"
        }
      ],
      "name": "challengeCompleted",
      "outputs": [
        {
          "internalType": "bool",
          "name": "",
          "type": "bool"
        }
      ],
      "stateMutability": "view",
      "type": "function"
    },
    {
      "inputs": [],
      "name": "challengeCount",
      "outputs": [
        {
          "internalType": "uint256",
          "name": "",
          "type": "uint256"
        }
      ],
      "stateMutability": "view",
      "type": "function"
    },
    {
      "inputs": [
        {
          "internalType": "uint256",
          "name": "",
          "type": "uint256"
        }
      ],
      "name": "challengeLevel",
      "outputs": [
        {
          "internalType": "uint256",
          "name": "",
          "type": "uint256"
        }
      ],
      "stateMutability": "view",
      "type": "function"
    },
    {
      "inputs": [
        {
          "internalType": "uint256",
          "name": "",
          "type": "uint256"
        }
      ],
      "name": "challengeReward",
      "outputs": [
        {
          "internalType": "uint256",
          "name": "",
          "type": "uint256"
        }
      ],
      "stateMutability": "view",
      "type": "function"
    },
    {
      "inputs": [
        {
          "internalType": "uint256",
          "name": "",
          "type": "uint256"
        }
      ],
      "name": "challengeTarget",
      "outputs": [
        {
          "internalType": "uint256",
          "name": "",
          "type": "uint256"
        }
      ],
      "stateMutability": "view",
      "type": "function"
    },
    {
      "inputs": [
        {
          "internalType": "uint256",
          "name": "",
          "type": "uint256"
        }
      ],
      "name": "challengeType",
      "outputs": [
        {
          "internalType": "uint256",
          "name": "",
          "type": "uint256"
        }
      ],
      "stateMutability": "view",
      "type": "function"
    },
    {
      "inputs": [
        {
          "internalType": "address",
          "name": "user",
          "type": "address"
        },
        {
          "internalType": "uint256",
          "name": "challengeId",
          "type": "uint256"
        }
      ],
      "name": "completeSocialChallenge",
      "outputs": [],
      "stateMutability": "nonpayable",
      "type": "function"
    },
    {
      "inputs": [
        {
          "internalType": "uint256",
          "name": "challengeId",
          "type": "uint256"
        }
      ],
      "name": "deactivateChallenge",
      "outputs": [],
      "stateMutability": "nonpayable",
      "type": "function"
    },
    {
      "inputs": [
        {
          "internalType": "address",
          "name": "user",
          "type": "address"
        },
        {
          "internalType": "uint256",
          "name": "amount",
          "type": "uint256"
        }
      ],
      "name": "distributeReward",
      "outputs": [],
      "stateMutability": "nonpayable",
      "type": "function"
    },
    {
      "inputs": [],
      "name": "fitToken",
      "outputs": [
        {
          "internalType": "contract IHRC20",
          "name": "",
          "type": "address"
        }
      ],
      "stateMutability": "view",
      "type": "function"
    },
    {
      "inputs": [],
      "name": "fitTokenAddress",
      "outputs": [
        {
          "internalType": "address",
          "name": "",
          "type": "address"
        }
      ],
      "stateMutability": "view",
      "type": "function"
    },
    {
      "inputs": [
        {
          "internalType": "uint256",
          "name": "challengeId",
          "type": "uint256"
        }
      ],
      "name": "getChallenge",
      "outputs": [
        {
          "internalType": "uint256",
          "name": "target",
          "type": "uint256"
        },
        {
          "internalType": "uint256",
          "name": "reward",
          "type": "uint256"
        },
        {
          "internalType": "uint256",
          "name": "level",
          "type": "uint256"
        },
        {
          "internalType": "bool",
          "name": "active",
          "type": "bool"
        }
      ],
      "stateMutability": "view",
      "type": "function"
    },
    {
      "inputs": [
        {
          "internalType": "address",
          "name": "user",
          "type": "address"
        },
        {
          "internalType": "uint256",
          "name": "challengeId",
          "type": "uint256"
        }
      ],
      "name": "getChallengeProgress",
      "outputs": [
        {
          "internalType": "uint256",
          "name": "",
          "type": "uint256"
        }
      ],
      "stateMutability": "view",
      "type": "function"
    },
    {
      "inputs": [],
      "name": "getContractBalance",
      "outputs": [
        {
          "internalType": "uint256",
          "name": "",
          "type": "uint256"
        }
      ],
      "stateMutability": "view",
      "type": "function"
    },
    {
      "inputs": [
        {
          "internalType": "address",
          "name": "user",
          "type": "address"
        }
      ],
      "name": "getTotalSteps",
      "outputs": [
        {
          "internalType": "uint256",
          "name": "",
          "type": "uint256"
        }
      ],
      "stateMutability": "view",
      "type": "function"
    },
    {
      "inputs": [
        {
          "internalType": "address",
          "name": "user",
          "type": "address"
        }
      ],
      "name": "getUserLevel",
      "outputs": [
        {
          "internalType": "uint256",
          "name": "",
          "type": "uint256"
        }
      ],
      "stateMutability": "view",
      "type": "function"
    },
    {
      "inputs": [
        {
          "internalType": "address",
          "name": "user",
          "type": "address"
        },
        {
          "internalType": "uint256",
          "name": "challengeId",
          "type": "uint256"
        }
      ],
      "name": "isChallengeCompleted",
      "outputs": [
        {
          "internalType": "bool",
          "name": "",
          "type": "bool"
        }
      ],
      "stateMutability": "view",
      "type": "function"
    },
    {
      "inputs": [],
      "name": "owner",
      "outputs": [
        {
          "internalType": "address",
          "name": "",
          "type": "address"
        }
      ],
      "stateMutability": "view",
      "type": "function"
    },
    {
      "inputs": [
        {
          "internalType": "address",
          "name": "",
          "type": "address"
        }
      ],
      "name": "totalSteps",
      "outputs": [
        {
          "internalType": "uint256",
          "name": "",
          "type": "uint256"
        }
      ],
      "stateMutability": "view",
      "type": "function"
    },
    {
      "inputs": [
        {
          "internalType": "address",
          "name": "user",
          "type": "address"
        },
        {
          "internalType": "uint256",
          "name": "steps",
          "type": "uint256"
        }
      ],
      "name": "updateSteps",
      "outputs": [],
      "stateMutability": "nonpayable",
      "type": "function"
    },
    {
      "inputs": [
        {
          "internalType": "address",
          "name": "",
          "type": "address"
        },
        {
          "internalType": "uint256",
          "name": "",
          "type": "uint256"
        }
      ],
      "name": "userChallengeProgress",
      "outputs": [
        {
          "internalType": "uint256",
          "name": "",
          "type": "uint256"
        }
      ],
      "stateMutability": "view",
      "type": "function"
    },
    {
      "inputs": [
        {
          "internalType": "address",
          "name": "",
          "type": "address"
        }
      ],
      "name": "userLevel",
      "outputs": [
        {
          "internalType": "uint256",
          "name": "",
          "type": "uint256"
        }
      ],
      "stateMutability": "view",
      "type": "function"
    },
    {
      "inputs": [
        {
          "internalType": "uint256",
          "name": "amount",
          "type": "uint256"
        }
      ],
      "name": "withdrawTokens",
      "outputs": [],
      "stateMutability": "nonpayable",
      "type": "function"
    }
  ],
  "bytecode": "0x608060405234801561001057600080fd5b506040516112cc3803806112cc83398101604081905261002f9161006c565b600080546001600160a01b03199081163317909155600180546001600160a01b03939093169282168317905560028054909116909117905561009c565b60006020828403121561007e57600080fd5b81516001600160a01b038116811461009557600080fd5b9392505050565b611221806100ab6000396000f3fe608060405234801561001057600080fd5b50600436106101735760003560e01c806375fac32a116100de578063cb345bfd11610097578063d5afb32211610071578063d5afb322146103eb578063d6d07dfd146103fe578063e35f8fd614610437578063e604dff61461045757600080fd5b8063cb345bfd1461039a578063cff9b1df146103c5578063d41250c3146103d857600080fd5b806375fac32a146102fb578063774eb2eb1461031b57806378721e361461033b5780638da5cb5b1461035e5780639abf01eb14610371578063a2f057251461039157600080fd5b806335ab58471161013057806335ab58471461025957806345e2e7ef146102845780634fcc2c88146102a457806360e427be146102b75780636f9fb98a146102ca578063739ff475146102d257600080fd5b806317877a5f146101785780631bdd4b74146101bb5780631ec8bb8c146101f057806321923bde14610205578063280e31cc14610226578063315a095d14610246575b600080fd5b6101a66101863660046110ba565b600c60209081526000928352604080842090915290825290205460ff1681565b60405190151581526020015b60405180910390f35b6101ce6101c93660046110e4565b61046a565b60408051948552602085019390935291830152151560608201526080016101b2565b6102036101fe3660046110ba565b6104fa565b005b6102186102133660046110fd565b6106bf565b6040519081526020016101b2565b6102186102343660046110fd565b60046020526000908152604090205481565b6102036102543660046110e4565b6106ee565b60025461026c906001600160a01b031681565b6040516001600160a01b0390911681526020016101b2565b6102186102923660046110e4565b60086020526000908152604090205481565b6102036102b23660046110e4565b610795565b6102036102c53660046110ba565b610822565b6102186108e5565b6102186102e03660046110fd565b6001600160a01b031660009081526003602052604090205490565b6102186103093660046110e4565b60076020526000908152604090205481565b6102186103293660046110e4565b60096020526000908152604090205481565b6101a66103493660046110e4565b600a6020526000908152604090205460ff1681565b60005461026c906001600160a01b031681565b61021861037f3660046110fd565b60036020526000908152604090205481565b61021860055481565b6102186103a83660046110ba565b600b60209081526000928352604080842090915290825290205481565b6102186103d33660046110ba565b610957565b60015461026c906001600160a01b031681565b6102036103f9366004611118565b610982565b6101a661040c3660046110ba565b6001600160a01b03919091166000908152600c60209081526040808320938352929052205460ff1690565b6102186104453660046110e4565b60066020526000908152604090205481565b6102036104653660046110ba565b610ac0565b60008060008060008511801561048257506005548511155b6104c05760405162461bcd60e51b815260206004820152600a602482015269125b9d985b1a5908125160b21b60448201526064015b60405180910390fd5b5050506000918252506006602090815260408083205460078352818420546008845282852054600a90945291909320549293909260ff1690565b6000546001600160a01b031633146105245760405162461bcd60e51b81526004016104b79061114a565b6002546040516370a0823160e01b815230600482015282916001600160a01b0316906370a0823190602401602060405180830381865afa15801561056c573d6000803e3d6000fd5b505050506040513d601f19601f82011682018060405250810190610590919061116e565b10156105d55760405162461bcd60e51b8152602060048201526014602482015273496e73756666696369656e742062616c616e636560601b60448201526064016104b7565b60025460405163a9059cbb60e01b81526001600160a01b038481166004830152602482018490529091169063a9059cbb906044016020604051808303816000875af1158015610628573d6000803e3d6000fd5b505050506040513d601f19601f8201168201806040525081019061064c9190611187565b50816001600160a01b03167f49649141d16971a88c3cfdd73fec34babb1cf163cf8b804c8f537a023c6ce506826040516106b39181526040602082018190526013908201527226b0b73ab0b6103234b9ba3934b13aba34b7b760691b606082015260800190565b60405180910390a25050565b6001600160a01b03811660009081526004602052604081205480156106e457806106e7565b60015b9392505050565b6000546001600160a01b031633146107185760405162461bcd60e51b81526004016104b79061114a565b60025460005460405163a9059cbb60e01b81526001600160a01b0391821660048201526024810184905291169063a9059cbb906044016020604051808303816000875af115801561076d573d6000803e3d6000fd5b505050506040513d601f19601f820116820180604052508101906107919190611187565b5050565b6000546001600160a01b031633146107bf5760405162461bcd60e51b81526004016104b79061114a565b6000811180156107d157506005548111155b61080a5760405162461bcd60e51b815260206004820152600a602482015269125b9d985b1a5908125160b21b60448201526064016104b7565b6000908152600a60205260409020805460ff19169055565b6000811161086b5760405162461bcd60e51b81526020600482015260166024820152755374657073206d75737420626520706f73697469766560501b60448201526064016104b7565b6001600160a01b038216600090815260036020526040812080548392906108939084906111bf565b9091555050604080518281524260208201526001600160a01b038416917f2e5930daff7b3ac8f0b5c249074fbfd4de5ffac051ef6fff5d07356a1f37454d910160405180910390a26107918282610c91565b6002546040516370a0823160e01b81523060048201526000916001600160a01b0316906370a0823190602401602060405180830381865afa15801561092e573d6000803e3d6000fd5b505050506040513d601f19601f82011682018060405250810190610952919061116e565b905090565b6001600160a01b0382166000908152600b602090815260408083208484529091529020545b92915050565b6000546001600160a01b031633146109ac5760405162461bcd60e51b81526004016104b79061114a565b600181101580156109be575060038111155b610a035760405162461bcd60e51b8152602060048201526016602482015275496e76616c6964206368616c6c656e6765207479706560501b60448201526064016104b7565b60058054906000610a13836111d2565b909155505060058054600090815260066020908152604080832088905583548352600782528083208790558354835260088252808320869055835483526009825280832085905583548352600a825291829020805460ff191660011790559154815187815292830186905290820184905260608201839052907f998da011c2d91056bc5444e961e9f704867aee3ee13b612d4313e23d91b18c1e906080015b60405180910390a250505050565b6000546001600160a01b03163314610aea5760405162461bcd60e51b81526004016104b79061114a565b600081815260096020526040902054600314610b415760405162461bcd60e51b81526020600482015260166024820152754e6f74206120736f6369616c206368616c6c656e676560501b60448201526064016104b7565b6001600160a01b0382166000908152600460209081526040808320548484526008909252909120541480610ba457506001600160a01b038216600090815260046020526040902054158015610ba457506000818152600860205260409020546001145b610bf05760405162461bcd60e51b815260206004820152601b60248201527f4368616c6c656e6765206e6f742061742075736572206c6576656c000000000060448201526064016104b7565b6001600160a01b0382166000908152600c6020908152604080832084845290915290205460ff1615610c585760405162461bcd60e51b8152602060048201526011602482015270105b1c9958591e4818dbdb5c1b195d1959607a1b60448201526064016104b7565b6000818152600660209081526040808320546001600160a01b0386168452600b8352818420858552909252909120556107918282610ddb565b6001600160a01b03821660009081526004602052604081205490819003610cb6575060015b60015b6005548111610dd557600081815260086020526040902054829003610dc3576000818152600a602052604090205460ff161580610d1957506001600160a01b0384166000908152600c6020908152604080832084845290915290205460ff165b610dc35760008181526009602052604090205460011480610d4857506000818152600960205260409020546002145b15610dc3576001600160a01b0384166000908152600b6020908152604080832084845290915281208054859290610d809084906111bf565b90915550506000818152600660209081526040808320546001600160a01b0388168452600b83528184208585529092529091205410610dc357610dc38482610ddb565b80610dcd816111d2565b915050610cb9565b50505050565b6001600160a01b038281166000908152600c602090815260408083208584528252808320805460ff191660011790556007909152908190205460025491516370a0823160e01b81523060048201529092839216906370a0823190602401602060405180830381865afa158015610e55573d6000803e3d6000fd5b505050506040513d601f19601f82011682018060405250810190610e79919061116e565b10610f655760025460405163a9059cbb60e01b81526001600160a01b038581166004830152602482018490529091169063a9059cbb906044016020604051808303816000875af1158015610ed1573d6000803e3d6000fd5b505050506040513d601f19601f82011682018060405250810190610ef59190611187565b50826001600160a01b03167f49649141d16971a88c3cfdd73fec34babb1cf163cf8b804c8f537a023c6ce50682604051610f5c9181526040602082018190526013908201527210da185b1b195b99d94818dbdb5c1b195d1959606a1b606082015260800190565b60405180910390a25b6040805182815242602082015283916001600160a01b038616917ff48420247edee4c80e87eae4089dc2767c88017a729f4fe6c52144a823476abe910160405180910390a3600082815260086020526040902054610fc38482611029565b15610dd557610fd38160016111bf565b6001600160a01b0385166000818152600460205260409020919091557f91e51c29e7e87a74ad3b8ccba98538970f50a4309242735467f41e27c6b0fbac61101b8360016111bf565b604051908152602001610ab2565b600060015b600554811161109457600081815260086020526040902054839003611082576001600160a01b0384166000908152600c6020908152604080832084845290915290205460ff1661108257600091505061097c565b8061108c816111d2565b91505061102e565b5060019392505050565b80356001600160a01b03811681146110b557600080fd5b919050565b600080604083850312156110cd57600080fd5b6110d68361109e565b946020939093013593505050565b6000602082840312156110f657600080fd5b5035919050565b60006020828403121561110f57600080fd5b6106e78261109e565b6000806000806080858703121561112e57600080fd5b5050823594602084013594506040840135936060013592509050565b6020808252600a908201526927b7363c9037bbb732b960b11b604082015260600190565b60006020828403121561118057600080fd5b5051919050565b60006020828403121561119957600080fd5b815180151581146106e757600080fd5b634e487b7160e01b600052601160045260246000fd5b8082018082111561097c5761097c6111a9565b6000600182016111e4576111e46111a9565b506001019056fea264697066735822122020bde954a098aa1d75db988cf0f8d176691988683365bf725b9922ec514b70bb64736f6c63430008140033",
  "linkReferences": {},
  "deployedLinkReferences": {}
}